{
  "address": "0x06eb4bCc14b8C1664a2d4e2CdE8fA2F992332fCd",
  "abi": [
    {
      "inputs": [
        {
          "internalType": "address",
          "name": "feesReceiver_",
          "type": "address"
        }
      ],
      "stateMutability": "nonpayable",
      "type": "constructor"
    },
    {
      "anonymous": false,
      "inputs": [
        {
          "indexed": true,
          "internalType": "address",
          "name": "maker",
          "type": "address"
        },
        {
          "indexed": false,
          "internalType": "uint256",
          "name": "newNonce",
          "type": "uint256"
        }
      ],
      "name": "NonceIncreased",
      "type": "event"
    },
    {
      "anonymous": false,
      "inputs": [
        {
          "indexed": true,
          "internalType": "address",
          "name": "previousOwner",
          "type": "address"
        },
        {
          "indexed": true,
          "internalType": "address",
          "name": "newOwner",
          "type": "address"
        }
      ],
      "name": "OwnershipTransferred",
      "type": "event"
    },
    {
      "inputs": [],
      "name": "BASE",
      "outputs": [
        {
          "internalType": "uint256",
          "name": "",
          "type": "uint256"
        }
      ],
      "stateMutability": "view",
      "type": "function"
    },
    {
      "inputs": [],
      "name": "FEE_BASE",
      "outputs": [
        {
          "internalType": "uint256",
          "name": "",
          "type": "uint256"
        }
      ],
      "stateMutability": "view",
      "type": "function"
    },
    {
      "inputs": [
        {
          "internalType": "uint8",
          "name": "amount",
          "type": "uint8"
        }
      ],
      "name": "advanceNonce",
      "outputs": [],
      "stateMutability": "nonpayable",
      "type": "function"
    },
    {
      "inputs": [
        {
          "internalType": "uint256",
          "name": "secs",
          "type": "uint256"
        }
      ],
      "name": "expBySeconds",
      "outputs": [
        {
          "internalType": "uint256",
          "name": "result",
          "type": "uint256"
        }
      ],
      "stateMutability": "pure",
      "type": "function"
    },
    {
      "inputs": [
        {
          "internalType": "uint256",
          "name": "orderMakerAmount",
          "type": "uint256"
        },
        {
          "internalType": "uint256",
          "name": "orderTakerAmount",
          "type": "uint256"
        },
        {
          "internalType": "uint256",
          "name": "thresholdOrderTakerAmount",
          "type": "uint256"
        },
        {
          "internalType": "uint256",
          "name": "startedAt",
          "type": "uint256"
        },
        {
          "internalType": "uint256",
          "name": "endedAt",
          "type": "uint256"
        },
        {
          "internalType": "uint256",
          "name": "amplifier",
          "type": "uint256"
        }
      ],
      "name": "exponentialPriceDecreasing",
      "outputs": [
        {
          "internalType": "uint256",
          "name": "",
          "type": "uint256"
        }
      ],
      "stateMutability": "view",
      "type": "function"
    },
    {
      "inputs": [
        {
          "internalType": "uint256",
          "name": "orderMakerAmount",
          "type": "uint256"
        },
        {
          "internalType": "uint256",
          "name": "orderTakerAmount",
          "type": "uint256"
        },
        {
          "internalType": "uint256",
          "name": "thresholdOrderTakerAmount",
          "type": "uint256"
        },
        {
          "internalType": "uint256",
          "name": "startedAt",
          "type": "uint256"
        },
        {
          "internalType": "uint256",
          "name": "endedAt",
          "type": "uint256"
        },
        {
          "internalType": "uint256",
          "name": "amplifier",
          "type": "uint256"
        }
      ],
      "name": "exponentialPriceIncreasing",
      "outputs": [
        {
          "internalType": "uint256",
          "name": "",
          "type": "uint256"
        }
      ],
      "stateMutability": "view",
      "type": "function"
    },
    {
      "inputs": [],
      "name": "fee",
      "outputs": [
        {
          "internalType": "uint256",
          "name": "",
          "type": "uint256"
        }
      ],
      "stateMutability": "view",
      "type": "function"
    },
    {
      "inputs": [],
      "name": "feesReceiver",
      "outputs": [
        {
          "internalType": "address",
          "name": "",
          "type": "address"
        }
      ],
      "stateMutability": "view",
      "type": "function"
    },
    {
      "inputs": [
        {
          "internalType": "uint256",
          "name": "orderMakerAmount",
          "type": "uint256"
        },
        {
          "internalType": "uint256",
          "name": "orderTakerAmount",
          "type": "uint256"
        },
        {
          "internalType": "uint256",
          "name": "thresholdOrderTakerAmount",
          "type": "uint256"
        },
        {
          "internalType": "uint256",
          "name": "startedAt",
          "type": "uint256"
        },
        {
          "internalType": "uint256",
          "name": "endedAt",
          "type": "uint256"
        },
        {
          "internalType": "bool",
          "name": "increasing",
          "type": "bool"
        },
        {
          "internalType": "uint256",
          "name": "amplifier",
          "type": "uint256"
        },
        {
          "internalType": "uint256",
          "name": "swapTakerAmount",
          "type": "uint256"
        }
      ],
      "name": "getExponentialAuctionMakerAmount",
      "outputs": [
        {
          "internalType": "uint256",
          "name": "",
          "type": "uint256"
        }
      ],
      "stateMutability": "view",
      "type": "function"
    },
    {
      "inputs": [
        {
          "internalType": "uint256",
          "name": "orderMakerAmount",
          "type": "uint256"
        },
        {
          "internalType": "uint256",
          "name": "orderTakerAmount",
          "type": "uint256"
        },
        {
          "internalType": "uint256",
          "name": "thresholdOrderTakerAmount",
          "type": "uint256"
        },
        {
          "internalType": "uint256",
          "name": "startedAt",
          "type": "uint256"
        },
        {
          "internalType": "uint256",
          "name": "endedAt",
          "type": "uint256"
        },
        {
          "internalType": "bool",
          "name": "increasing",
          "type": "bool"
        },
        {
          "internalType": "uint256",
          "name": "amplifier",
          "type": "uint256"
        },
        {
          "internalType": "uint256",
          "name": "swapMakerAmount",
          "type": "uint256"
        }
      ],
      "name": "getExponentialAuctionTakerAmount",
      "outputs": [
        {
          "internalType": "uint256",
          "name": "",
          "type": "uint256"
        }
      ],
      "stateMutability": "view",
      "type": "function"
    },
    {
      "inputs": [
        {
          "internalType": "uint256",
          "name": "orderMakerAmount",
          "type": "uint256"
        },
        {
          "internalType": "uint256",
          "name": "orderTakerAmount",
          "type": "uint256"
        },
        {
          "internalType": "uint256",
          "name": "thresholdOrderTakerAmount",
          "type": "uint256"
        },
        {
          "internalType": "uint256",
          "name": "startedAt",
          "type": "uint256"
        },
        {
          "internalType": "uint256",
          "name": "endedAt",
          "type": "uint256"
        },
        {
          "internalType": "bool",
          "name": "increasing",
          "type": "bool"
        },
        {
          "internalType": "uint256",
          "name": "swapTakerAmount",
          "type": "uint256"
        }
      ],
      "name": "getLinearAuctionMakerAmount",
      "outputs": [
        {
          "internalType": "uint256",
          "name": "",
          "type": "uint256"
        }
      ],
      "stateMutability": "view",
      "type": "function"
    },
    {
      "inputs": [
        {
          "internalType": "uint256",
          "name": "orderMakerAmount",
          "type": "uint256"
        },
        {
          "internalType": "uint256",
          "name": "orderTakerAmount",
          "type": "uint256"
        },
        {
          "internalType": "uint256",
          "name": "thresholdOrderTakerAmount",
          "type": "uint256"
        },
        {
          "internalType": "uint256",
          "name": "startedAt",
          "type": "uint256"
        },
        {
          "internalType": "uint256",
          "name": "endedAt",
          "type": "uint256"
        },
        {
          "internalType": "bool",
          "name": "increasing",
          "type": "bool"
        },
        {
          "internalType": "uint256",
          "name": "swapMakerAmount",
          "type": "uint256"
        }
      ],
      "name": "getLinearAuctionTakerAmount",
      "outputs": [
        {
          "internalType": "uint256",
          "name": "",
          "type": "uint256"
        }
      ],
      "stateMutability": "view",
      "type": "function"
    },
    {
      "inputs": [],
      "name": "increaseNonce",
      "outputs": [],
      "stateMutability": "nonpayable",
      "type": "function"
    },
    {
      "inputs": [
        {
          "internalType": "uint256",
          "name": "orderMakerAmount",
          "type": "uint256"
        },
        {
          "internalType": "uint256",
          "name": "orderTakerAmount",
          "type": "uint256"
        },
        {
          "internalType": "uint256",
          "name": "thresholdOrderTakerAmount",
          "type": "uint256"
        },
        {
          "internalType": "uint256",
          "name": "startedAt",
          "type": "uint256"
        },
        {
          "internalType": "uint256",
          "name": "endedAt",
          "type": "uint256"
        }
      ],
      "name": "linearPriceDecreasing",
      "outputs": [
        {
          "internalType": "uint256",
          "name": "",
          "type": "uint256"
        }
      ],
      "stateMutability": "view",
      "type": "function"
    },
    {
      "inputs": [
        {
          "internalType": "uint256",
          "name": "orderMakerAmount",
          "type": "uint256"
        },
        {
          "internalType": "uint256",
          "name": "orderTakerAmount",
          "type": "uint256"
        },
        {
          "internalType": "uint256",
          "name": "thresholdOrderTakerAmount",
          "type": "uint256"
        },
        {
          "internalType": "uint256",
          "name": "startedAt",
          "type": "uint256"
        },
        {
          "internalType": "uint256",
          "name": "endedAt",
          "type": "uint256"
        }
      ],
      "name": "linearPriceIncreasing",
      "outputs": [
        {
          "internalType": "uint256",
          "name": "",
          "type": "uint256"
        }
      ],
      "stateMutability": "view",
      "type": "function"
    },
    {
      "inputs": [
        {
          "internalType": "address",
          "name": "",
          "type": "address"
        }
      ],
      "name": "nonce",
      "outputs": [
        {
          "internalType": "uint256",
          "name": "",
          "type": "uint256"
        }
      ],
      "stateMutability": "view",
      "type": "function"
    },
    {
      "inputs": [
        {
          "internalType": "address",
          "name": "makerAddress",
          "type": "address"
        },
        {
          "internalType": "uint256",
          "name": "makerNonce",
          "type": "uint256"
        }
      ],
      "name": "nonceEquals",
      "outputs": [
        {
          "internalType": "bool",
          "name": "",
          "type": "bool"
        }
      ],
      "stateMutability": "view",
      "type": "function"
    },
    {
      "inputs": [
        {
          "internalType": "address",
          "name": "",
          "type": "address"
        },
        {
          "internalType": "address",
          "name": "",
          "type": "address"
        },
        {
          "internalType": "address",
          "name": "takerAsset",
          "type": "address"
        },
        {
          "internalType": "uint256",
          "name": "makingAmount",
          "type": "uint256"
        },
        {
          "internalType": "uint256",
          "name": "takingAmount",
          "type": "uint256"
        },
        {
          "internalType": "bytes",
          "name": "interactiveData",
          "type": "bytes"
        }
      ],
      "name": "notifyFillOrder",
      "outputs": [],
      "stateMutability": "nonpayable",
      "type": "function"
    },
    {
      "inputs": [],
      "name": "owner",
      "outputs": [
        {
          "internalType": "address",
          "name": "",
          "type": "address"
        }
      ],
      "stateMutability": "view",
      "type": "function"
    },
    {
      "inputs": [],
      "name": "renounceOwnership",
      "outputs": [],
      "stateMutability": "nonpayable",
      "type": "function"
    },
    {
      "inputs": [
        {
          "internalType": "uint256",
          "name": "fee_",
          "type": "uint256"
        }
      ],
      "name": "setFee",
      "outputs": [],
      "stateMutability": "nonpayable",
      "type": "function"
    },
    {
      "inputs": [
        {
          "internalType": "address",
          "name": "feesReceiver_",
          "type": "address"
        }
      ],
      "name": "setFeeReceiver",
      "outputs": [],
      "stateMutability": "nonpayable",
      "type": "function"
    },
    {
      "inputs": [
        {
          "internalType": "uint256",
          "name": "time",
          "type": "uint256"
        }
      ],
      "name": "timestampAbove",
      "outputs": [
        {
          "internalType": "bool",
          "name": "",
          "type": "bool"
        }
      ],
      "stateMutability": "view",
      "type": "function"
    },
    {
      "inputs": [
        {
          "internalType": "uint256",
          "name": "time",
          "type": "uint256"
        }
      ],
      "name": "timestampBelow",
      "outputs": [
        {
          "internalType": "bool",
          "name": "",
          "type": "bool"
        }
      ],
      "stateMutability": "view",
      "type": "function"
    },
    {
      "inputs": [
        {
          "internalType": "address",
          "name": "newOwner",
          "type": "address"
        }
      ],
      "name": "transferOwnership",
      "outputs": [],
      "stateMutability": "nonpayable",
      "type": "function"
    }
  ],
  "transactionHash": "0x3e187b4cff3d909854df6234cee8714942f19a42c85a7b6c597ef826e78b008f",
  "args": [
    "0xd8166138Eda6dEFD2Bf2403d7637F41CE01C4BbE"
  ],
  "numDeployments": 1,
  "solcInputHash": "9eb894df12d3e1e3b24d557be6880e4c",
  "bytecode": "0x6080604052600a60025534801561001557600080fd5b5060405161166c38038061166c833981016040819052610034916100b6565b8061003e33610064565b600380546001600160a01b0319166001600160a01b0392909216919091179055506100e6565b600180546001600160a01b038381166001600160a01b0319831681179093556040519116919082907f8be0079c531659141344cd1fd0a4f28419497f9722a3daafe3b4186f6b6457e090600090a35050565b6000602082840312156100c857600080fd5b81516001600160a01b03811681146100df57600080fd5b9392505050565b611577806100f56000396000f3fe608060405234801561001057600080fd5b50600436106101735760003560e01c8063bca93cf5116100de578063ddca3f4311610097578063ecefc70511610071578063ecefc70514610341578063efdcd9741461034b578063f2fde38b1461035e578063fed532121461037157600080fd5b8063ddca3f4314610316578063e71c95181461031f578063ec342ad01461033257600080fd5b8063bca93cf514610295578063bdf854f3146102a8578063c53a0292146102bb578063cf21c775146102c3578063cf6fc6e3146102d6578063d81c542b1461030357600080fd5b806363592c2b1161013057806363592c2b1461020d57806369fe0e2d1461022057806370ae92d214610235578063715018a61461025557806372c244a81461025d5780638da5cb5b1461027057600080fd5b8063220dca52146101785780632863f0861461019e57806340a8c0e7146101c15780634f20a775146101d457806351cd3910146101e7578063601dc934146101fa575b600080fd5b61018b6101863660046110f7565b610384565b6040519081526020015b60405180910390f35b6101b16101ac36600461115f565b421190565b6040519015158152602001610195565b61018b6101cf366004611178565b6103d6565b61018b6101e236600461115f565b610491565b61018b6101f53660046111b3565b610868565b61018b6102083660046110f7565b610928565b6101b161021b36600461115f565b421090565b61023361022e36600461115f565b610962565b005b61018b61024336600461120b565b60006020819052908152604090205481565b61023361096f565b61023361026b366004611228565b610983565b6001546001600160a01b03165b6040516001600160a01b039091168152602001610195565b60035461027d906001600160a01b031681565b61018b6102b636600461124b565b6109f0565b610233610a3e565b6102336102d13660046112c1565b610a48565b6101b16102e43660046113bc565b6001600160a01b03919091166000908152602081905260409020541490565b61018b61031136600461124b565b610b7a565b61018b60025481565b61018b61032d366004611178565b610bb3565b61018b670de0b6b3a764000081565b61018b620186a081565b61023361035936600461120b565b610c52565b61023361036c36600461120b565b610c7c565b61018b61037f3660046111b3565b610cf5565b6000670de0b6b3a7640000846103a7576103a28a8a8a8a8a89610868565b6103b5565b6103b58a8a8a8a8a89610cf5565b6103bf90846113fe565b6103c9919061141d565b9998505050505050505050565b600080866103ec670de0b6b3a7640000886113fe565b6103f6919061141d565b905060008761040d670de0b6b3a7640000886113fe565b610417919061141d565b90504285111561042a5791506104889050565b4284101561043a57509050610488565b6000610446864261143f565b90506000610454878761143f565b9050828183610463838861143f565b61046d91906113fe565b610477919061141d565b6104819190611456565b9450505050505b95945050505050565b670de0b6b3a7640000600f82161561055b5760018216156104d1576a0c097ce7bc90715b34b9f160241b6ec092e04e5bc5ba2d9eaf8f0000000082020490505b60028216156104ff576a0c097ce7bc90715b34b9f160241b6ec08df2413e52bce616c26f1000000082020490505b600482161561052d576a0c097ce7bc90715b34b9f160241b6ec0841687ef88da0e0219c93f10000082020490505b600882161561055b576a0c097ce7bc90715b34b9f160241b6ec0706098eb3d8dad71e6823e86df1082020490505b60f082161561061c576010821615610592576a0c097ce7bc90715b34b9f160241b6ec048fac88e9b7584c4f0fa400171b082020490505b60208216156105c0576a0c097ce7bc90715b34b9f160241b6ebffa4758bcda710d9e528a11c6715082020490505b60408216156105ee576a0c097ce7bc90715b34b9f160241b6ebf5d410e86adaaf35db80d1d605b6c82020490505b608082161561061c576a0c097ce7bc90715b34b9f160241b6ebe24b55f652e45e1ebc842913ab9c382020490505b610f008216156106e257610100821615610655576a0c097ce7bc90715b34b9f160241b6ebbb996249761db2c87848c7687f8d182020490505b610200821615610684576a0c097ce7bc90715b34b9f160241b6eb6faddc63206c463991fde8fdc950682020490505b6104008216156106b3576a0c097ce7bc90715b34b9f160241b6eadd8c2cb1adc56015d8ac13e949ad682020490505b6108008216156106e2576a0c097ce7bc90715b34b9f160241b6e9cecd60ec709883c1df984ed528def82020490505b61f0008216156107a85761100082161561071b576a0c097ce7bc90715b34b9f160241b6e7fdce769ba4042c58df22b634da52d82020490505b61200082161561074a576a0c097ce7bc90715b34b9f160241b6e54e372216d9b621162728539f1abfe82020490505b614000821615610779576a0c097ce7bc90715b34b9f160241b6e256a7bfb81e938b516478ae184de7e82020490505b6180008216156107a8576a0c097ce7bc90715b34b9f160241b6e0744db899706cd40ba8762a820f40982020490505b620f000082161561086357620100008216156107e2576a0c097ce7bc90715b34b9f160241b6d463bd697e97c414af51c38344bac82020490505b62020000821615610810576a0c097ce7bc90715b34b9f160241b6c199cc99af8ae745a2741b20f0782020490505b6204000082161561083c576a0c097ce7bc90715b34b9f160241b6a0367f86fa912ef7733a1c682020490505b62080000821615610863576a0c097ce7bc90715b34b9f160241b650f6bdf3552b282020490505b919050565b6000808761087e670de0b6b3a7640000896113fe565b610888919061141d565b905060008861089f670de0b6b3a7640000896113fe565b6108a9919061141d565b9050428611156108bb5750905061091e565b428510156108cc57915061091e9050565b60006108d8874261143f565b90506000670de0b6b3a76400006108f26101e288856113fe565b6108fc90866113fe565b610906919061141d565b90508281116109155782610917565b805b9450505050505b9695505050505050565b6000836109425761093d898989898988610868565b610950565b610950898989898988610cf5565b6103bf670de0b6b3a7640000846113fe565b61096a610d91565b600255565b610977610d91565b6109816000610deb565b565b336000908152602081905260408120546109a19060ff841690611456565b33600081815260208181526040918290208490558151848152915193945091927ffc69110dd11eb791755e4abd6b7d281bae236de95736d38a23782814be5e10db929181900390910190a25050565b600082610a0957610a048888888888610bb3565b610a16565b610a1688888888886103d6565b610a28670de0b6b3a7640000846113fe565b610a32919061141d565b98975050505050505050565b6109816001610983565b600080600083806020019051810190610a61919061146e565b925092509250610a7081421190565b610ab35760405162461bcd60e51b815260206004820152600f60248201526e139bdd081cdd185c9d1959081e595d608a1b60448201526064015b60405180910390fd5b8115801590610ac25750858214155b15610b0f5760405162461bcd60e51b815260206004820152601860248201527f5061727469616c2066696c6c206e6f7420616c6c6f77656400000000000000006044820152606401610aaa565b6000620186a060025487610b2391906113fe565b610b2d919061141d565b9050610b4e84610b3d838961143f565b6001600160a01b038b169190610e3d565b8015610b6e57600354610b6e906001600160a01b038a8116911683610e3d565b50505050505050505050565b6000670de0b6b3a764000083610b9c57610b978989898989610bb3565b610ba9565b610ba989898989896103d6565b610a2890846113fe565b60008086610bc9670de0b6b3a7640000886113fe565b610bd3919061141d565b9050600087610bea670de0b6b3a7640000886113fe565b610bf4919061141d565b905042851115610c0657509050610488565b42841015610c175791506104889050565b6000610c23864261143f565b90506000610c31878761143f565b905080610c3e83856113fe565b610c48919061141d565b610481908561143f565b610c5a610d91565b600380546001600160a01b0319166001600160a01b0392909216919091179055565b610c84610d91565b6001600160a01b038116610ce95760405162461bcd60e51b815260206004820152602660248201527f4f776e61626c653a206e6577206f776e657220697320746865207a65726f206160448201526564647265737360d01b6064820152608401610aaa565b610cf281610deb565b50565b60008087610d0b670de0b6b3a7640000896113fe565b610d15919061141d565b9050600088610d2c670de0b6b3a7640000896113fe565b610d36919061141d565b905042861115610d4957915061091e9050565b42851015610d595750905061091e565b6000610d65874261143f565b90506000670de0b6b3a7640000610d7f6101e288856113fe565b6108f290670de0b6b3a764000061143f565b6001546001600160a01b031633146109815760405162461bcd60e51b815260206004820181905260248201527f4f776e61626c653a2063616c6c6572206973206e6f7420746865206f776e65726044820152606401610aaa565b600180546001600160a01b038381166001600160a01b0319831681179093556040519116919082907f8be0079c531659141344cd1fd0a4f28419497f9722a3daafe3b4186f6b6457e090600090a35050565b604080516001600160a01b038416602482015260448082018490528251808303909101815260649091019091526020810180516001600160e01b031663a9059cbb60e01b179052610e8f908490610e94565b505050565b6000610ee9826040518060400160405280602081526020017f5361666545524332303a206c6f772d6c6576656c2063616c6c206661696c6564815250856001600160a01b0316610f669092919063ffffffff16565b805190915015610e8f5780806020019051810190610f0791906114a5565b610e8f5760405162461bcd60e51b815260206004820152602a60248201527f5361666545524332303a204552433230206f7065726174696f6e20646964206e6044820152691bdd081cdd58d8d9595960b21b6064820152608401610aaa565b6060610f758484600085610f7f565b90505b9392505050565b606082471015610fe05760405162461bcd60e51b815260206004820152602660248201527f416464726573733a20696e73756666696369656e742062616c616e636520666f6044820152651c8818d85b1b60d21b6064820152608401610aaa565b6001600160a01b0385163b6110375760405162461bcd60e51b815260206004820152601d60248201527f416464726573733a2063616c6c20746f206e6f6e2d636f6e74726163740000006044820152606401610aaa565b600080866001600160a01b0316858760405161105391906114f2565b60006040518083038185875af1925050503d8060008114611090576040519150601f19603f3d011682016040523d82523d6000602084013e611095565b606091505b50915091506110a58282866110b0565b979650505050505050565b606083156110bf575081610f78565b8251156110cf5782518084602001fd5b8160405162461bcd60e51b8152600401610aaa919061150e565b8015158114610cf257600080fd5b600080600080600080600080610100898b03121561111457600080fd5b883597506020890135965060408901359550606089013594506080890135935060a0890135611142816110e9565b979a969950949793969295929450505060c08201359160e0013590565b60006020828403121561117157600080fd5b5035919050565b600080600080600060a0868803121561119057600080fd5b505083359560208501359550604085013594606081013594506080013592509050565b60008060008060008060c087890312156111cc57600080fd5b505084359660208601359650604086013595606081013595506080810135945060a0013592509050565b6001600160a01b0381168114610cf257600080fd5b60006020828403121561121d57600080fd5b8135610f78816111f6565b60006020828403121561123a57600080fd5b813560ff81168114610f7857600080fd5b600080600080600080600060e0888a03121561126657600080fd5b873596506020880135955060408801359450606088013593506080880135925060a0880135611294816110e9565b8092505060c0880135905092959891949750929550565b634e487b7160e01b600052604160045260246000fd5b60008060008060008060c087890312156112da57600080fd5b86356112e5816111f6565b955060208701356112f5816111f6565b94506040870135611305816111f6565b9350606087013592506080870135915060a087013567ffffffffffffffff8082111561133057600080fd5b818901915089601f83011261134457600080fd5b813581811115611356576113566112ab565b604051601f8201601f19908116603f0116810190838211818310171561137e5761137e6112ab565b816040528281528c602084870101111561139757600080fd5b8260208601602083013760006020848301015280955050505050509295509295509295565b600080604083850312156113cf57600080fd5b82356113da816111f6565b946020939093013593505050565b634e487b7160e01b600052601160045260246000fd5b6000816000190483118215151615611418576114186113e8565b500290565b60008261143a57634e487b7160e01b600052601260045260246000fd5b500490565b600082821015611451576114516113e8565b500390565b60008219821115611469576114696113e8565b500190565b60008060006060848603121561148357600080fd5b835161148e816111f6565b602085015160409095015190969495509392505050565b6000602082840312156114b757600080fd5b8151610f78816110e9565b60005b838110156114dd5781810151838201526020016114c5565b838111156114ec576000848401525b50505050565b600082516115048184602087016114c2565b9190910192915050565b602081526000825180602084015261152d8160408501602087016114c2565b601f01601f1916919091016040019291505056fea26469706673582212200891e4f1c69f8a85f05990c2a6b8f40a7264ad32ae8084a3840e9f9d62fc8e4e64736f6c63430008090033",
  "devdoc": {
    "kind": "dev",
    "methods": {
      "nonceEquals(address,uint256)": {
        "returns": {
          "_0": "Result True if `makerAddress` has specified nonce. Otherwise, false"
        }
      },
      "owner()": {
        "details": "Returns the address of the current owner."
      },
      "renounceOwnership()": {
        "details": "Leaves the contract without owner. It will not be possible to call `onlyOwner` functions anymore. Can only be called by the current owner. NOTE: Renouncing ownership will leave the contract without an owner, thereby removing any functionality that is only available to the owner."
      },
      "transferOwnership(address)": {
        "details": "Transfers ownership of the contract to a new account (`newOwner`). Can only be called by the current owner."
      }
    },
    "version": 1
  },
  "userdoc": {
    "kind": "user",
    "methods": {
      "advanceNonce(uint8)": {
        "notice": "Advances nonce by specified amount"
      },
      "increaseNonce()": {
        "notice": "Advances nonce by one"
      },
      "nonceEquals(address,uint256)": {
        "notice": "Checks if `makerAddress` has specified `makerNonce`"
      }
    },
    "version": 1
  },
  "storageLayout": {
    "storage": [
      {
        "astId": 3068,
        "contract": "contracts/OpiumAuctionV2Helper.sol:OpiumAuctionV2Helper",
        "label": "nonce",
        "offset": 0,
        "slot": "0",
        "type": "t_mapping(t_address,t_uint256)"
      },
      {
        "astId": 7,
        "contract": "contracts/OpiumAuctionV2Helper.sol:OpiumAuctionV2Helper",
        "label": "_owner",
        "offset": 0,
        "slot": "1",
        "type": "t_address"
      },
      {
        "astId": 2903,
        "contract": "contracts/OpiumAuctionV2Helper.sol:OpiumAuctionV2Helper",
        "label": "fee",
        "offset": 0,
        "slot": "2",
        "type": "t_uint256"
      },
      {
        "astId": 2905,
        "contract": "contracts/OpiumAuctionV2Helper.sol:OpiumAuctionV2Helper",
        "label": "feesReceiver",
        "offset": 0,
        "slot": "3",
        "type": "t_address"
      }
    ],
    "types": {
      "t_address": {
        "encoding": "inplace",
        "label": "address",
        "numberOfBytes": "20"
      },
      "t_mapping(t_address,t_uint256)": {
        "encoding": "mapping",
        "key": "t_address",
        "label": "mapping(address => uint256)",
        "numberOfBytes": "32",
        "value": "t_uint256"
      },
      "t_uint256": {
        "encoding": "inplace",
        "label": "uint256",
        "numberOfBytes": "32"
      }
    }
  }
}